{
  "contractName": "Store",
  "abi": [
    {
      "inputs": [
        {
          "internalType": "string",
          "name": "_name",
          "type": "string"
        },
        {
          "internalType": "string",
          "name": "_description",
          "type": "string"
        }
      ],
      "stateMutability": "nonpayable",
      "type": "constructor"
    },
    {
      "inputs": [],
      "name": "description",
      "outputs": [
        {
          "internalType": "string",
          "name": "",
          "type": "string"
        }
      ],
      "stateMutability": "view",
      "type": "function",
      "constant": true
    },
    {
      "inputs": [],
      "name": "name",
      "outputs": [
        {
          "internalType": "string",
          "name": "",
          "type": "string"
        }
      ],
      "stateMutability": "view",
      "type": "function",
      "constant": true
    },
    {
      "inputs": [],
      "name": "owner",
      "outputs": [
        {
          "internalType": "address",
          "name": "",
          "type": "address"
        }
      ],
      "stateMutability": "view",
      "type": "function",
      "constant": true
    },
    {
      "inputs": [
        {
          "internalType": "uint256",
          "name": "",
          "type": "uint256"
        }
      ],
      "name": "posters",
      "outputs": [
        {
          "internalType": "uint256",
          "name": "id",
          "type": "uint256"
        },
        {
          "internalType": "uint256",
          "name": "startTime",
          "type": "uint256"
        },
        {
          "internalType": "uint256",
          "name": "endTime",
          "type": "uint256"
        },
        {
          "internalType": "bool",
          "name": "purchased",
          "type": "bool"
        },
        {
          "internalType": "bool",
          "name": "active",
          "type": "bool"
        },
        {
          "internalType": "address payable",
          "name": "owner",
          "type": "address"
        }
      ],
      "stateMutability": "view",
      "type": "function",
      "constant": true
    },
    {
      "inputs": [],
      "name": "getActivePosterCount",
      "outputs": [
        {
          "internalType": "uint256",
          "name": "",
          "type": "uint256"
        }
      ],
      "stateMutability": "view",
      "type": "function",
      "constant": true
    },
    {
      "inputs": [],
      "name": "getActivePosters",
      "outputs": [
        {
          "components": [
            {
              "internalType": "uint256",
              "name": "id",
              "type": "uint256"
            },
            {
              "internalType": "uint256",
              "name": "startTime",
              "type": "uint256"
            },
            {
              "internalType": "uint256",
              "name": "endTime",
              "type": "uint256"
            },
            {
              "internalType": "bool",
              "name": "purchased",
              "type": "bool"
            },
            {
              "internalType": "bool",
              "name": "active",
              "type": "bool"
            },
            {
              "internalType": "address payable",
              "name": "owner",
              "type": "address"
            }
          ],
          "internalType": "struct Store.Poster[]",
          "name": "",
          "type": "tuple[]"
        }
      ],
      "stateMutability": "view",
      "type": "function",
      "constant": true
    },
    {
      "inputs": [
        {
          "internalType": "uint256",
          "name": "_startTime",
          "type": "uint256"
        },
        {
          "internalType": "uint256",
          "name": "_endTime",
          "type": "uint256"
        },
        {
          "internalType": "bool",
          "name": "_active",
          "type": "bool"
        },
        {
          "internalType": "uint256",
          "name": "_amountAvailable",
          "type": "uint256"
        }
      ],
      "name": "createPosters",
      "outputs": [],
      "stateMutability": "nonpayable",
      "type": "function"
    }
  ],
  "bytecode": "0x608060405260006003556000600455610e106006556107086007553480156200002757600080fd5b50604051620010e1380380620010e183398181016040528101906200004d9190620001ea565b816000908051906020019062000065929190620000c8565b5080600190805190602001906200007e929190620000c8565b5033600260006101000a81548173ffffffffffffffffffffffffffffffffffffffff021916908373ffffffffffffffffffffffffffffffffffffffff16021790555050506200038e565b828054620000d690620002fa565b90600052602060002090601f016020900481019282620000fa576000855562000146565b82601f106200011557805160ff191683800117855562000146565b8280016001018555821562000146579182015b828111156200014557825182559160200191906001019062000128565b5b50905062000155919062000159565b5090565b5b80821115620001745760008160009055506001016200015a565b5090565b60006200018f620001898462000291565b6200025d565b905082815260208101848484011115620001a857600080fd5b620001b5848285620002c4565b509392505050565b600082601f830112620001cf57600080fd5b8151620001e184826020860162000178565b91505092915050565b60008060408385031215620001fe57600080fd5b600083015167ffffffffffffffff8111156200021957600080fd5b6200022785828601620001bd565b925050602083015167ffffffffffffffff8111156200024557600080fd5b6200025385828601620001bd565b9150509250929050565b6000604051905081810181811067ffffffffffffffff821117156200028757620002866200035f565b5b8060405250919050565b600067ffffffffffffffff821115620002af57620002ae6200035f565b5b601f19601f8301169050602081019050919050565b60005b83811015620002e4578082015181840152602081019050620002c7565b83811115620002f4576000848401525b50505050565b600060028204905060018216806200031357607f821691505b602082108114156200032a576200032962000330565b5b50919050565b7f4e487b7100000000000000000000000000000000000000000000000000000000600052602260045260246000fd5b7f4e487b7100000000000000000000000000000000000000000000000000000000600052604160045260246000fd5b610d43806200039e6000396000f3fe608060405234801561001057600080fd5b506004361061007d5760003560e01c80638da5cb5b1161005b5780638da5cb5b146100f3578063c8ce24cb14610111578063cbf320e31461012f578063fda5cf6d1461014b5761007d565b806306fdde031461008257806334d1892c146100a05780637284e416146100d5575b600080fd5b61008a610169565b6040516100979190610a1f565b60405180910390f35b6100ba60048036038101906100b591906107c3565b6101f7565b6040516100cc96959493929190610a5c565b60405180910390f35b6100dd61026d565b6040516100ea9190610a1f565b60405180910390f35b6100fb6102fb565b60405161010891906109e2565b60405180910390f35b610119610321565b60405161012691906109fd565b60405180910390f35b610149600480360381019061014491906107ec565b610520565b005b6101536106b1565b6040516101609190610a41565b60405180910390f35b6000805461017690610bf5565b80601f01602080910402602001604051908101604052809291908181526020018280546101a290610bf5565b80156101ef5780601f106101c4576101008083540402835291602001916101ef565b820191906000526020600020905b8154815290600101906020018083116101d257829003601f168201915b505050505081565b60056020528060005260406000206000915090508060000154908060010154908060020154908060030160009054906101000a900460ff16908060030160019054906101000a900460ff16908060030160029054906101000a900473ffffffffffffffffffffffffffffffffffffffff16905086565b6001805461027a90610bf5565b80601f01602080910402602001604051908101604052809291908181526020018280546102a690610bf5565b80156102f35780601f106102c8576101008083540402835291602001916102f3565b820191906000526020600020905b8154815290600101906020018083116102d657829003601f168201915b505050505081565b600260009054906101000a900473ffffffffffffffffffffffffffffffffffffffff1681565b6060600060035467ffffffffffffffff811115610367577f4e487b7100000000000000000000000000000000000000000000000000000000600052604160045260246000fd5b6040519080825280602002602001820160405280156103a057816020015b61038d610749565b8152602001906001900390816103855790505b5090506000805b600454811015610517576003548214156103c057610517565b6005600082815260200190815260200160002060030160019054906101000a900460ff161561050457600560008281526020019081526020016000206040518060c00160405290816000820154815260200160018201548152602001600282015481526020016003820160009054906101000a900460ff161515151581526020016003820160019054906101000a900460ff161515151581526020016003820160029054906101000a900473ffffffffffffffffffffffffffffffffffffffff1673ffffffffffffffffffffffffffffffffffffffff1673ffffffffffffffffffffffffffffffffffffffff16815250508383815181106104ea577f4e487b7100000000000000000000000000000000000000000000000000000000600052603260045260246000fd5b6020026020010181905250818061050090610c27565b9250505b808061050f90610c27565b9150506103a7565b50819250505090565b600260009054906101000a900473ffffffffffffffffffffffffffffffffffffffff1673ffffffffffffffffffffffffffffffffffffffff163373ffffffffffffffffffffffffffffffffffffffff161461057a57600080fd5b60005b81811015610691576000816004546105959190610b12565b90506105a3818787876106bb565b6005600083815260200190815260200160002060008201518160000155602082015181600101556040820151816002015560608201518160030160006101000a81548160ff02191690831515021790555060808201518160030160016101000a81548160ff02191690831515021790555060a08201518160030160026101000a81548173ffffffffffffffffffffffffffffffffffffffff021916908373ffffffffffffffffffffffffffffffffffffffff160217905550905050831561067d576003600081548092919061067790610c27565b91905055505b50808061068990610c27565b91505061057d565b5080600460008282546106a49190610b12565b9250508190555050505050565b6000600354905090565b6106c3610749565b82600654856106d29190610b12565b10156106dd57600080fd5b83600754426106ec9190610b12565b11156106f757600080fd5b6040518060c0016040528086815260200185815260200184815260200160001515815260200183151581526020013373ffffffffffffffffffffffffffffffffffffffff168152509050949350505050565b6040518060c00160405280600081526020016000815260200160008152602001600015158152602001600015158152602001600073ffffffffffffffffffffffffffffffffffffffff1681525090565b6000813590506107a881610cdf565b92915050565b6000813590506107bd81610cf6565b92915050565b6000602082840312156107d557600080fd5b60006107e3848285016107ae565b91505092915050565b6000806000806080858703121561080257600080fd5b6000610810878288016107ae565b9450506020610821878288016107ae565b935050604061083287828801610799565b9250506060610843878288016107ae565b91505092959194509250565b600061085b8383610949565b60c08301905092915050565b61087081610b7a565b82525050565b61087f81610b7a565b82525050565b61088e81610b68565b82525050565b600061089f82610acd565b6108a98185610af0565b93506108b483610abd565b8060005b838110156108e55781516108cc888261084f565b97506108d783610ae3565b9250506001810190506108b8565b5085935050505092915050565b6108fb81610b8c565b82525050565b61090a81610b8c565b82525050565b600061091b82610ad8565b6109258185610b01565b9350610935818560208601610bc2565b61093e81610cce565b840191505092915050565b60c08201600082015161095f60008501826109c4565b50602082015161097260208501826109c4565b50604082015161098560408501826109c4565b50606082015161099860608501826108f2565b5060808201516109ab60808501826108f2565b5060a08201516109be60a0850182610867565b50505050565b6109cd81610bb8565b82525050565b6109dc81610bb8565b82525050565b60006020820190506109f76000830184610885565b92915050565b60006020820190508181036000830152610a178184610894565b905092915050565b60006020820190508181036000830152610a398184610910565b905092915050565b6000602082019050610a5660008301846109d3565b92915050565b600060c082019050610a7160008301896109d3565b610a7e60208301886109d3565b610a8b60408301876109d3565b610a986060830186610901565b610aa56080830185610901565b610ab260a0830184610876565b979650505050505050565b6000819050602082019050919050565b600081519050919050565b600081519050919050565b6000602082019050919050565b600082825260208201905092915050565b600082825260208201905092915050565b6000610b1d82610bb8565b9150610b2883610bb8565b9250827fffffffffffffffffffffffffffffffffffffffffffffffffffffffffffffffff03821115610b5d57610b5c610c70565b5b828201905092915050565b6000610b7382610b98565b9050919050565b6000610b8582610b98565b9050919050565b60008115159050919050565b600073ffffffffffffffffffffffffffffffffffffffff82169050919050565b6000819050919050565b60005b83811015610be0578082015181840152602081019050610bc5565b83811115610bef576000848401525b50505050565b60006002820490506001821680610c0d57607f821691505b60208210811415610c2157610c20610c9f565b5b50919050565b6000610c3282610bb8565b91507fffffffffffffffffffffffffffffffffffffffffffffffffffffffffffffffff821415610c6557610c64610c70565b5b600182019050919050565b7f4e487b7100000000000000000000000000000000000000000000000000000000600052601160045260246000fd5b7f4e487b7100000000000000000000000000000000000000000000000000000000600052602260045260246000fd5b6000601f19601f8301169050919050565b610ce881610b8c565b8114610cf357600080fd5b50565b610cff81610bb8565b8114610d0a57600080fd5b5056fea2646970667358221220f136be011f3e977916ff3a50c305eefb00eb02e2140d2c90ff05653ce1d9a98564736f6c63430008000033",
  "immutableReferences": {},
  "source": "// SPDX-License-Identifier: GPL-3.0 License\npragma solidity >=0.5.0;\n\n/*\n * @title A store contract to manage coupon sales\n * @author Vela\n */\ncontract Store {\n    string public name;\n    string public description;\n    address public owner;\n    // Keeping track of posters\n    uint private activeCount = 0;\n    uint private posterCount = 0;\n    mapping (uint => Poster) public posters;\n    // constant time period for minimum operation window\n    uint MIN_POSTER_TIME = 1 hours;\n    // constant time period for minimum time between now and start time\n    uint MIN_TIME_TO_START = 30 minutes;\n\n    struct Poster {\n        uint id;\n        uint startTime;\n        uint endTime;\n        bool purchased;\n        bool active;\n        address payable owner;\n    }\n\n    /*\n     * @descr Check whether the given id is valid\n     * @param _posterId - Id of the target poster\n     */\n    modifier hasValidPosterId(uint _targetPosterId) {\n        require(posterCount > _targetPosterId);\n        _;\n    }\n\n    /*\n     * @descr Check whether the contract owner matches poster owner\n     * @param _posterId - Id of the target poster\n     */\n    modifier storeOwnsPoster(uint _targetPosterId) {\n        require(posters[_targetPosterId].owner == owner);\n        _;\n    }\n\n    /*\n     * @descr The address of the request matches the owner\n     */\n    modifier isOwner() {\n        require(msg.sender == owner);\n        _;\n    }\n\n    /*\n     * @descr Check whether the poster is active\n     * @param _posterId - Id of the target poster\n     */\n    modifier posterIsActive(uint _targetPosterId) {\n        require(posters[_targetPosterId].active);\n        _;\n    }\n\n    /*\n     * @descr Contructor of the Store, manage coupon sales\n     * @param _name - Name of the store creating the contract\n     */\n    constructor(string memory _name, string memory _description) {\n        name = _name;\n        description = _description;\n        owner = msg.sender;\n    }\n\n    function getActivePosterCount() external view returns (uint) {\n        return activeCount;\n    }\n\n    function getActivePosters() external view returns (Poster[] memory) {\n        Poster[] memory activePosters = new Poster[](activeCount);\n        uint count = 0;\n\n        for(uint i=0; i < posterCount; i++) {\n            if(count == activeCount) {\n                break;\n            }\n\n            if(posters[i].active) {\n                activePosters[count] = posters[i];\n                count++;\n            }\n        }\n        return activePosters;\n    }\n\n    function createPosters(uint _startTime, uint _endTime, bool _active, uint _amountAvailable) public isOwner {\n        for(uint i=0; i < _amountAvailable; i++) {\n            uint newId = posterCount + i;\n            posters[newId] = _createNewPoster(newId, _startTime, _endTime, _active);\n\n            if(_active) {\n                activeCount++;\n            }\n        }\n        posterCount += _amountAvailable;\n    }\n\n    function _createNewPoster(uint _id, uint _startTime, uint _endTime, bool _active) private view returns (Poster memory) {\n        require(_startTime + MIN_POSTER_TIME >= _endTime);\n        require(block.timestamp + MIN_TIME_TO_START <= _startTime);\n\n        return Poster(_id, _startTime, _endTime, false, _active, payable(msg.sender));\n    }\n}",
  "sourcePath": "/home/andrewserra/vela-dapp/contracts/Store.sol",
  "compiler": {
    "name": "solc",
    "version": "0.8.0+commit.c7dfd78e.Emscripten.clang"
  },
  "schemaVersion": "3.4.1",
  "updatedAt": "2021-05-28T19:32:00.520Z",
  "networkType": "ethereum",
  "devdoc": {
    "kind": "dev",
    "methods": {},
    "version": 1
  },
  "userdoc": {
    "kind": "user",
    "methods": {},
    "version": 1
  }
}